:020000020000FC
:040000000C94440315
:1001EC00416B65656D204D6F7267616E2C094E30E9
:1001FC00303432373934382C0954696D653A200063
:10020C00000009436F6F6B2054696D653A20000044
:10021C000953746174653A2000008AB1806E8AB902
:10022C0084B1836084B98AB1837E8AB98BB18C61C5
:10023C008BB901E804BD05E005BD00E007BD0895DC
:10024C001027E80364000A00010000002FEF81EE84
:10025C0094E0215080409040E1F7089540E458EC40
:10026C006AEF000000006A95E1F75A95C9F74A95C4
:10027C00B1F70895212F2F70206312951F70106312
:10028C000895212F1F7000E31A3008F007E3100FB8
:10029C0022952F7000E32A3008F007E3200F089511
:1002AC00ECE4F2E0A8E0B1E02FE225903590239544
:1002BC0002191309E0F7020D131D2D93C8950020A8
:1002CC0099F70895080141E122183324001C111CF0
:1002DC004A9559F0221C331C221A330A20F4220EA0
:1002EC00331E8894F3CF0894F1CF089549E0221877
:1002FC00002E001C4A9541F0221C221A18F4220EE2
:10030C008894F7CF0894F5CF089540E04093C5004A
:10031C0047E64093C40048E14093C10046E0409357
:10032C00C20008954091C00045FF0C9498010093C1
:10033C00C60008954091C00047FFFCCF6091C600F5
:10034C0008950DE00E9498010AE00E94980108951A
:10035C00013031F00191003049F0E4DF0C94B00130
:10036C000591003019F0DEDF0C94B6010895E2DF40
:10037C006D3019F430E03C9308956C93062FD2DF66
:10038C00683049F4AA95B04000E20E94980108E058
:10039C00C9DF0C94BD01A39540E0B41FE8CF0895CC
:1003AC0050E05093B90058E45093B80054E0509387
:1003BC00BC00089544EA4093BC00ECEBF0E04081B3
:1003CC004423ECF77093BB0084E88093BC00ECEB07
:1003DC00F0E080818823ECF74091B900487B81E004
:1003EC00483109F080E008950E94E001089584E905
:1003FC008093BC00089554E85093BC005091BC000D
:10040C0057FFFCCFB091BB00089584EC8093BC00E7
:10041C00ECEBF0E080818823ECF78091BB00089531
:10042C0084E88093BC00ECEBF0E080818823ECF74F
:10043C008091BB0008958093BB0084E88093BC003E
:10044C00CCEBD0E088818823ECF74091B90081E0B7
:10045C00463209F480E008950E94FA01892F0E9427
:10046C002102862F0E9421020E94FD010895672F10
:10047C000E94FA01892F0E94210271E0760F0E94DE
:10048C00FA010E941602682F0E94FD01862F089522
:10049C000E94FA01892F0E942102209739F0F8015D
:1004AC0081918F010E9421022197C9F70E94FD01C1
:1004BC00089570ED0E94FA0170ED97E060E00E94E3
:1004CC00320290E060E00E94320291E060E00E9413
:1004DC003202089570ED0E943D02089570ED97E090
:1004EC0060E00E94320270ED92E066E10E943202FE
:1004FC0070ED91E068E50E94320270ED90E061E1F0
:10050C000E943202089580E480937C0087E88093F7
:10051C007A000895ECE7F0E090818770987F892B42
:10052C008083EAE7F0E0808180648083808186FDAF
:10053C00FDCF8091780090917900089570EE0E9423
:10054C00FA0181E20E9421020E94FD010E94FA013F
:10055C0081E80E9421020E94FD010E94FA0185EEB1
:10056C000E9421020E94FD0100E210E00E94CB02D9
:10057C0000E211E00E94CB0200E212E00E94CB02EA
:10058C0000E213E00E94CB020895E8ECF5E0005283
:10059C00000FE00F00E0F01F2591349170EE0E94E7
:1005AC00FA01812F880F0E942102822F0E942102C2
:1005BC00832F0E9421020E94FD0108950000060075
:1005CC002002CE12ED12240C5D230004002400093D
:1005DC00C03FC0120008C0000000000C3F00060025
:1005EC00DB00CF00E600ED00FD000700FF00EF0090
:1005FC000012000A0024C80000098310BB02F70097
:10060C008F1239000F12F9007100BD00F6000012B4
:10061C001E0070243800360536213F00F3003F20C1
:10062C00F320ED0001123E00300C3628002D001591
:10063C00090C390000210F00030C080000015810B0
:10064C007820D8008E08580871008E0470100010A5
:10065C000E0000363000D4105010DC0070018604FF
:10066C005000882078001C0004201428C0280C207E
:10067C0048084909001289242005FF3F08E00EBFF5
:10068C000FEF0DBF0E9413010E948B010E94D60137
:10069C000E945F020E9474020E9489020E94A402BE
:1006AC000C948E030E94F1034B9B0C94B6035F9841
:1006BC004C990C9468035D9A4C9B0C9462035D9866
:1006CC000C949A03809100014A990C947F035D9AD3
:1006DC004A9B0C946E035D988330C1F00091050128
:1006EC00003011F00C94AD030091060181F50C94CF
:1006FC009A03809100018330A9F2289800E007BD8D
:10070C000E94C9049030E1F10C9458030C94B60388
:10071C0080E08093000180E08093070180930501C5
:10072C00809306010C94580381E080930001289873
:10073C004B9B0C94A4035F980C94A5035F9A00E068
:10074C0007BD00930501009306010C94580383E048
:10075C00809300015F98289A03E207BD0C9458031C
:10076C0084E08093000128985D9800E007BD4B9BC6
:10077C000C94C3035F980C94C4035F9A0C945803B5
:10078C0082E080930001A0910501B0910601509187
:10079C000201573860F4B03039F4A03049F0AA3077
:1007AC0018F4A0E00C94DE031A970C94DE031A964E
:1007BC00A0930501B09306010E941B040E94340112
:1007CC000E94C904509104015030D1F284E080930E
:1007DC0000010C9458030E942C015D986091070154
:1007EC006A30E9F460E060930701709100017330A6
:1007FC00A1F4A0910501B0910601A395119741F4C4
:10080C0071E070930001289800E007BD0C9413046C
:10081C001197A0930501B09306010E941B046091EF
:10082C00070163956093070108950E94A701ECEE00
:10083C00F1E001E00E94AE010E943604EEE0F2E02D
:10084C0001E00E94AE010E948804ECE1F2E001E0BC
:10085C000E94AE010091000100630E94980108956E
:10086C0092E00E947002182F0E944001012F0E94FA
:10087C009801022F0E9498010AE30E94980191E0CE
:10088C000E947002182F0E944001012F0E949801B3
:10089C00022F0E9498010AE30E94980190E00E94A6
:1008AC007002182F0E944001012F0E949801022F04
:1008BC000E94980180910001833019F1843009F174
:1008CC008230F9F092E00E947002182F0E944001D1
:1008DC00012FF22E10E00E94CB020F2D11E00E948E
:1008EC00CB020F2D91E00E947002182F0E94400144
:1008FC00012FF22E12E00E94CB020F2D13E00E946A
:10090C00CB02089500910501109106010E94560139
:10091C0040E040930D0140930E0140930F01E8E03D
:10092C00F1E000E00E94AE0180910001833021F0E3
:10093C00843011F0823031F50091050110910601DF
:10094C002CE330E00E946801402C522C042D2AE04C
:10095C000E947C0100E3000D10E00E94CB0200E33A
:10096C00020D11E00E94CB02052D2AE00E947C01B1
:10097C0000E3000D12E00E94CB0200E3020D13E035
:10098C000E94CB02089580E00E9490029295990FEC
:10099C00990F86958695892B8093030181E00E949F
:1009AC0090029295990F990F86958695892B809335
:1009BC00020190E0833718F0873808F491E09093A7
:0409CC000401089585
:00000001FF
